0029029070999991901010506004+64333+023450FM-12+000599999V0202701N004119999999N0000001N9+00001+99999101821ADDGF104991999999999999999999
0029029070999991901010513004+64333+023450FM-12+000599999V0202701N002119999999N0000001N9+00061+99999102591ADDGF104991999999999999999999
0029029070999991901010520004+64333+023450FM-12+000599999V0202301N004119999999N0000001N9+00001+99999102671ADDGF104991999999999999999999
0029029070999991901010606004+64333+023450FM-12+000599999V0202701N006219999999N0000001N9+00061+99999102751ADDGF103991999999999999999999
0029029070999991901010613004+64333+023450FM-12+000599999V0202701N006219999999N0000001N9+00061+99999102981ADDGF100991999999999999999999